:100000000C942A000C943C000C943C000C943C0092
:100010000C943C000C943C000C943C000C943E006E
:100020000C943C000C943C000C943C000C943C0060
:100030000C943C000C943C000C943C000C943C0050
:100040000C943C000C943C000C943C000C943C0040
:100050000C943C0011241FBECFE5D8E0DEBFCDBF1D
:1000600020E0A0E6B0E001C01D92A436B207E1F79F
:100070000E94D8000C94E1000C9400001F920F9293
:100080000FB60F9211248F939F93809162009091ED
:10009000630081309105F9F038F08230910589F1E3
:1000A000039709F446C055C01EBC19BE1BBC8FE7A0
:1000B0008ABD8091620090916300019690936300E5
:1000C0008093620081E088BB1DBC1CBC83E08EBDB8
:1000D00080E189BF3EC01EBC19BE1BBC8FE08ABD3B
:1000E00081E08EBD809162009091630001969093B3
:1000F00063008093620018BA1DBC1CBC80E189BFFC
:1001000028C01EBC19BE82E088BB83E08EBD81E0A2
:100110008BBD8FEF8ABD8091620090916300019644
:1001200090936300809362001DBC1CBC80E189BF7A
:1001300010C01EBC19BE1BBC8FE08ABD81E08EBD05
:10014000109263001092620018BA1DBC1CBC80E1C2
:1001500089BF9F918F910F900FBE0F901F901895A0
:10016000879B03C081E080936100879B10926100B0
:1001700080916000909161009817A9F0882359F050
:10018000109263001092620080E189BF81E08EBD11
:100190001DBC1CBC08C010926300109262001EBC03
:1001A00018BA1DBC1CBC809161008093600008954A
:1001B0008FEF87BB18BA88E08FBD78940E94B0009B
:0601C000FDCFF894FFCF13
:00000001FF
